:020000040800F2
:1000000000A00020413E0008913E0008913E0008FB
:10001000913E0008913E0008913E0008000000005B
:100020000000000000000000000000000133000894
:10003000913E000800000000A1330008B13D000817
:10004000913E0008913E0008913E0008913E000854
:10005000913E0008913E0008913E0008913E000844
:10006000913E0008913E0008913E0008913E000834
:10007000913E0008913E0008913E0008913E000824
:10008000B93D0008913E0008913E0008913E0008ED
:10009000913E0008913E0008913E0008913E000804
:1000A000913E0008C93D0008913E0008913E0008BD
:1000B000913E0008913E0008913E0008913E0008E4
:1000C000913E0008913E0008913E0008913E0008D4
:1000D000913E0008913E0008913E0008913E0008C4
:1000E000913E0008913E0008913E0008913E0008B4
:1000F000913E0008913E0008913E0008913E0008A4
:10010000000000000000000000000000913E000818
:10011000913E0008913E0008913E0008913E000883
:10012000913E0008913E0008913E0008913E000873
:10013000913E0008913E0008000000000000000011
:10014000913E0008913E0008913E0008000000002A
:10015000000000000000000000000000000000009F
:100160000000000000000000913E0008913E0008E1
:10017000913E0008000000000000000000000000A8
:0801800000000000913E0008A0
:1001900010B5054C237833B9044B13B10448AFF3C1
:1001A00000800123237010BD140000200000000017
:1001B000F43E000808B5034B1BB103490348AFF3F5
:1001C000008008BD0000000018000020F43E000878
:1001D00008B5074A136843F010031360032000F0CA
:1001E0001BF8002003F0A8FD03F01AFD002008BD55
:1001F00000200240034A1168034B1B780B44136034
:10020000704700BFBC21002000000020014B18688F
:10021000704700BFBC210020074AD36823F4E06385
:100220001B041B0C000200F4E060184340F0BF60A8
:1002300040F40030D060704700ED00E030B4174B60
:10024000DB68C3F30223C3F10704042C28BF042492
:100250001D1D062D18D9033B4FF0FF3505FA04F498
:1002600021EA0401994005FA03F322EA0303194342
:1002700000280BDB0901C9B200F1604000F56140C4
:1002800080F8001330BC70470023E5E700F00F0052
:100290000901C9B2024B1954F4E700BF00ED00E0B8
:1002A00014ED00E000F01F02400901239340024AD0
:1002B00042F82030704700BF00E100E00138B0F1A3
:1002C000807F0AD2064B5860064AF02182F823103C
:1002D0000020986007221A6070470120704700BF15
:1002E00010E000E000ED00E0042805D0054A1368A6
:1002F00023F0040313607047024A136843F00403B9
:100300001360704710E000E070B4066CC56B012408
:10031000B4406C60046863604368102B05D00368C8
:1003200099600368DA6070BC704703689A6003687C
:10033000D960F8E702680C4B9A420AD90B4B134478
:100340000B4AA2FB03231B099B000364094BC363F5
:100350007047094B1344064AA2FB03231B099B0069
:100360000364064BC363704707040240F8FBFDBFFC
:10037000CDCCCCCC00040240F8FFFDBF0000024011
:1003800020B310B50446022380F8213001680A68C2
:1003900022F47F5222F03002436880680343E06811
:1003A00003432069034360690343A0690343E06991
:1003B000034313430B602046FFF7BCFF0020A063FC
:1003C000012384F8213084F8200010BD01207047FB
:1003D00038B590F82040012C32D0012480F820401C
:1003E00090F82140012C04D0002380F82030022016
:1003F00038BD0446022084F821000020A06325684F
:10040000286820F0010028602046FFF77DFFE36A9E
:100410005BB12268136843F00E031360226813680F
:1004200043F0010313600020E2E72268136843F001
:100430000A0313602268136823F004031360EDE7D6
:100440000220D5E738B5C36B1A6804682568016CCB
:1004500004238B40134213D015F0040F10D02368EF
:1004600013F0200F03D1236823F004032360016CF1
:10047000C26B04238B405360C36A03B1984738BDF5
:1004800002238B4013421AD015F0020F17D02368B5
:1004900013F0200F06D1236823F00A032360012301
:1004A00080F82130016CC26B02238B405360002323
:1004B00080F82030836A002BE1D09847DFE70823DB
:1004C00003FA01F11142DAD015F0080FD7D02368F2
:1004D00023F00E032360026CC16B012303FA02F2C6
:1004E0004A60836380F82130002380F82030036B5A
:1004F000002BC4D09847C2E7F0B482B0002336E0A6
:10050000042400E00024B4403C4302355B4E46F82E
:1005100025405B4C2568D44304EA05064F6817F470
:10052000803F01D042EA0506554D2E606D6804EA11
:1005300005064F6817F4003F01D042EA0506504D0A
:100540006E60AD6804EA05064F6817F4801F01D09D
:1005500042EA05064A4DAE60ED682C404E6816F43E
:10056000001F01D042EA0504454AD46001330A68FD
:1005700032FA03F47ED001249C402240F6D04D682C
:10058000022D01D0122D10D1DE08083650F826C0F9
:1005900003F00705AF000F25BD402CEA050C0D69DF
:1005A000BD4045EA0C0540F8265006685F0003256B
:1005B000BD40ED4305EA060C4E6806F00306BE405A
:1005C00046EA0C0606604E6806F1FF3CBCF1010FDE
:1005D00003D9112E01D0122E10D1866805EA060C1F
:1005E000CE68BE4046EA0C068660466826EA0404E9
:1005F0004E68C6F300169E4026434660C4682540F8
:100600008C68BC402C43C4604C6814F0805FADD053
:100610001C4CA56945F00105A561A46904F001041D
:100620000194019C9D08AE1C144C54F8267003F0F4
:100630000304A6000F24B44027EA0407B0F1904F4A
:100640003FF460AF104CA0420ED004F58064A0428D
:100650000CD004F58064A0420AD004F58064A04266
:100660003FF44EAF05244EE701244CE702244AE74D
:10067000032448E702B0F0BC704700BF000001400F
:1006800000040140001002400004004803691942C0
:1006900001D100207047012070470AB9816270477C
:1006A000816170474369594041617047002800F0FB
:1006B000F58270B582B00446036813F0010F3BD099
:1006C000B54B5B6803F00C03042B1ED0B24B5B6888
:1006D00003F00C03082B13D06368B3F5803F68D098
:1006E000002B40F0928003F1804303F504331A6835
:1006F00022F480321A601A6822F480221A605DE0C7
:10070000A54B5B6813F4803FE6D04FF4003393FAB7
:10071000A3F3A14B19684FF4003393FAA3F3B3FA90
:1007200083F303F01F03012202FA03F30B4203D009
:100730006368002B00F0B482236813F0020F00F00E
:10074000C680954B5B6813F00C0F00F09C80924BB9
:100750005B6803F00C03082B00F08F802369002BEB
:1007600000F0F380012292FAA2F3B3FA83F303F1CB
:10077000845303F584139B001A60FFF747FD054679
:10078000022393FAA3F3844B1968022393FAA3F389
:10079000B3FA83F303F01F03012202FA03F30B42BF
:1007A00040F0C480FFF732FD401B0228E8D9032047
:1007B00083E2794A136843F480331360764AD36A3C
:1007C00023F00F03A1680B43D3626368002B36D07C
:1007D000FFF71CFD05464FF4003393FAA3F36E4B6D
:1007E00019684FF4003393FAA3F3B3FA83F303F0D9
:1007F0001F03012202FA03F30B429DD1FFF706FD0E
:10080000401B6428E7D9032057E2B3F5A02F09D095
:10081000614B1A6822F480321A601A6822F480222E
:100820001A60CBE703F18043A3F53C331A6842F426
:1008300080221A601A6842F480321A60BEE7FFF71D
:10084000E5FC05464FF4003393FAA3F3524B1968C5
:100850004FF4003393FAA3F3B3FA83F303F01F03C7
:10086000012202FA03F30B423FF466AFFFF7CEFC1E
:10087000401B6428E6D903201FE2474B5B6813F452
:10088000803F7FF46BAF022393FAA3F3424B1968C6
:10089000022393FAA3F3B3FA83F303F01F030122B5
:1008A00002FA03F30B4204D02369934201D00120E2
:1008B00003E23948036823F0F8036169F82292FAE9
:1008C000A2F2B2FA82F201FA02F213430360236841
:1008D00013F0080F00F08C80A369002B60D0012179
:1008E00091FAA1F2B2FA82F22C4B13449B001960E8
:1008F000FFF78CFC0546022393FAA3F293FAA3F2C6
:1009000093FAA3F2244A516A93FAA3F3B3FA83F356
:1009100003F01F03012202FA03F30B4268D1FFF731
:1009200075FC401B0228E6D90320C6E11A4803687B
:1009300023F0F8036169F82292FAA2F2B2FA82F285
:1009400001FA02F213430360C1E7012393FAA3F310
:10095000B3FA83F303F1845303F584139B0000225D
:100960001A60FFF753FC0546022393FAA3F30A4BE0
:100970001968022393FAA3F3B3FA83F303F01F0376
:10098000012202FA03F30B42A1D0FFF73FFC401B08
:100990000228E9D9032090E1001002402081901044
:1009A000012292FAA2F2B2FA82F2C04B13449B00E7
:1009B00000221A60FFF72AFC0546022393FAA3F2ED
:1009C00093FAA3F293FAA3F2B94A516A93FAA3F302
:1009D000B3FA83F303F01F03012202FA03F30B427D
:1009E00006D0FFF713FC401B0228E6D9032064E180
:1009F000236813F0040F00F0B380AD4BDB6913F0F4
:100A0000805F20D1AA4BDA6942F08052DA61DB695B
:100A100003F080530193019B0125A64B1B6813F43F
:100A2000807F12D0E368012B23D073BB03F1804396
:100A300003F504331A6A22F001021A621A6A22F0DC
:100A400004021A621AE00025E7E79A4A136843F4A1
:100A500080731360FFF7DAFB0646964B1B6813F4AE
:100A6000807FDFD1FFF7D2FB801B6428F5D90320FC
:100A700023E18F4A136A43F001031362E368002BFA
:100A800041D0FFF7C3FB06462BE0052B09D0884B6E
:100A90001A6A22F001021A621A6A22F004021A6229
:100AA000ECE7834B1A6A42F004021A621A6A42F0B7
:100AB00001021A62E2E77E4B196A022393FAA3F35A
:100AC000B3FA83F303F01F03012202FA03F319427E
:100AD00045D1FFF79BFB801B41F28833984200F21F
:100AE000E180022393FAA3F293FAA3F3B3FA83F318
:100AF0005B0943F00203022BDDD0022393FAA3F338
:100B00006B4B596AD9E7FFF781FB064615E0684B46
:100B1000196A022393FAA3F3B3FA83F303F01F03D2
:100B2000012202FA03F3194219D0FFF76FFB801B71
:100B300041F28833984200F2B780022393FAA3F27D
:100B400093FAA3F3B3FA83F35B0943F00203022B96
:100B5000DDD0022393FAA3F3554B596AD9E7B5BB0D
:100B6000E369002B00F0A880514A526802F00C02A1
:100B7000082A00F0A480022B2FD04FF0807393FA44
:100B8000A3F3B3FA83F303F1845303F584139B00B7
:100B900000221A60FFF73AFB04464FF0007393FA05
:100BA000A3F3434B19684FF0007393FAA3F3B3FA1E
:100BB00083F303F01F03012202FA03F319426BD0FF
:100BC000FFF724FB001B0228E7D9032075E0384A11
:100BD000D36923F08053D361C2E74FF0807393FA57
:100BE000A3F3B3FA83F303F1845303F584139B0057
:100BF00000221A60FFF70AFB05464FF0007393FAD4
:100C0000A3F32B4B19684FF0007393FAA3F3B3FAD5
:100C100083F303F01F03012202FA03F3194206D003
:100C2000FFF7F4FA401B0228E7D9032045E02049EA
:100C30004B6823F47413626A206A024313434B60C7
:100C40004FF0807393FAA3F3B3FA83F303F1845361
:100C500003F584139B0001221A60FFF7D7FA0446BC
:100C60004FF0007393FAA3F3114B19684FF0007320
:100C700093FAA3F3B3FA83F303F01F03012202FAFA
:100C800003F3194206D1FFF7C1FA001B0228E7D986
:100C9000032012E0002010E000200EE00120704749
:100CA00001200AE0032008E0032006E020819010E4
:100CB0000010024000700040002002B070BD012012
:100CC000FBE700BF10B4174B5C6804F00C03082B63
:100CD00026D104F470124FF4701393FAA3F3B3FA0D
:100CE00083F322FA03F31049C85C0E4BDB6A03F06E
:100CF0000F030F2292FAA2F2B2FA82F2D3400B440F
:100D00001A7C14F4803F05D1084B03FB00F05DF81A
:100D1000044B7047064BB3FBF2F300FB03F0F6E71E
:100D20000348F4E7001002400C3F000800093D00B2
:100D300000127A00002800F0C08070B50446614BB4
:100D40001B6803F007038B420CD25E4A136823F042
:100D500007030B431360136803F007038B4201D0B2
:100D6000012070BD236813F0020F06D0564A536865
:100D700023F0F003A068034353600D46236813F08B
:100D8000010F5AD06368012B2DD0022B40D00222D4
:100D900092FAA2F24C4A1068022292FAA2F2B2FA35
:100DA00082F202F01F02012101FA02F2104200F069
:100DB000868045494A6822F0030213434B60FFF7DF
:100DC00025FA0646404B5B6803F00C036268B3EB00
:100DD000820F32D0FFF71AFA801B41F28833984213
:100DE000F0D90320BDE74FF4003292FAA2F2364A5E
:100DF00010684FF4003292FAA2F2B2FA82F202F0D4
:100E00001F02012101FA02F20242D2D10120A8E719
:100E10004FF0007292FAA2F22B4A10684FF0007263
:100E200092FAA2F2B2FA82F202F01F02012101FA52
:100E300002F21042BDD1012093E7224B1B6803F060
:100E40000703AB420CD91F4A136823F007032B4357
:100E50001360136803F00703AB4201D0012080E761
:100E6000236813F0040F06D0174A536823F4E06395
:100E7000E1680B435360236813F0080F07D0124A50
:100E8000536823F46053216943EAC1035360FFF7B9
:100E900019FF0D4B5B6803F0F003F02292FAA2F207
:100EA000B2FA82F2D340094AD35CD840084B1860AA
:100EB000002002F041FF002053E70120704701208D
:100EC0004FE700BF0020024000100240403F0008F2
:100ED00010000020014B1868704700BF1000002070
:100EE00008B5FFF7F7FF074B5B6803F4E0634FF4C7
:100EF000E06292FAA2F2B2FA82F2D340024AD35CE2
:100F0000D84008BD00100240503F000808B5FFF768
:100F1000E1FF074B5B6803F460534FF4605292FAB1
:100F2000A2F2B2FA82F2D340024AD35CD84008BDA2
:100F300000100240503F00080F2303600B4B5A681B
:100F400002F0030242605A6802F0F00282605A68BE
:100F500002F4E062C2605B68DB0803F4E0630361F3
:100F6000034B1B6803F007030B607047001002403F
:100F700000200240F0B583B00446036813F4803FBC
:100F800048D0934BDB6913F0805F40F0D580904BE5
:100F9000DA6942F08052DA61DB6903F08053019331
:100FA000019B01258B4B1B6813F4807F00F0C680EA
:100FB000874B1B6A13F4407322D0626802F44072BC
:100FC0009A421DD08248016A21F440764FF4803362
:100FD00093FAA3F2B2FA82F27F4F3A4492004FF0B2
:100FE000010CC2F800C093FAA3F3B3FA83F33B44B5
:100FF0009B0000221A60066211F0010F40F0B380DE
:10100000734A136A23F4407361680B431362002D23
:1010100040F0D580236813F0010F06D06C4A136BA3
:1010200023F00303A1680B431363236813F0020F3B
:1010300006D0674A136B23F44033E1680B43136314
:10104000236813F0040F06D0614A136B23F4402386
:1010500021690B431363236813F0200F06D05C4A09
:10106000136B23F01003E1690B431363236813F43C
:10107000003F06D0564A536823F48003A16B0B430C
:101080005360236813F0400F06D0514A136B23F0CE
:101090002003216A0B431363236813F0080F06D063
:1010A0004B4A136B23F4401361690B4313632368AA
:1010B00013F0100F06D0464A136B23F44003A169C6
:1010C0000B431363236813F4007F06D0404A536830
:1010D00023F40003E16A0B435360236813F0800F8D
:1010E00006D03B4AD36A23F4F873616A0B43D36298
:1010F000236813F4807F06D0354AD36A23F47853EB
:10110000A16A0B43D362236813F4805F06D0304A90
:10111000136B23F48073216B0B431363236813F465
:10112000005F53D02A4A136B23F40073616B0B43A7
:101130001363002003B0F0BD002533E7254A136890
:1011400043F480731360FFF761F80646214B1B6878
:1011500013F4807F7FF42CAFFFF758F8801B6428CE
:10116000F4D90320E6E7FFF751F8064615E0184BDF
:10117000196A022393FAA3F3B3FA83F303F01F036C
:10118000012202FA03F30B427FF43AAFFFF73EF875
:10119000801B41F28833984216D8022393FAA3F2B7
:1011A00093FAA3F3B3FA83F35B0943F00203022B30
:1011B000DDD0022393FAA3F3054B596AD9E7D3692B
:1011C00023F08053D36125E70320B3E70020B1E784
:1011D00000100240007000400081901070470268CB
:1011E000D36843F00103D3600268136843F001033E
:1011F000136000207047704770477047704710B504
:10120000044603681A6912F0020F11D0DA6812F06E
:10121000020F0DD06FF002021A61012303770368F9
:101220009B6913F0030F79D0FFF7E6FF00232377C4
:1012300023681A6912F0040F12D0DA6812F0040F52
:101240000ED06FF004021A610223237723689B6992
:1012500013F4407F68D02046FFF7CEFF00232377AA
:1012600023681A6912F0080F12D0DA6812F0080F1A
:101270000ED06FF008021A61042323772368DB691C
:1012800013F0030F57D02046FFF7B6FF0023237754
:1012900023681A6912F0100F12D0DA6812F0100FDA
:1012A0000ED06FF010021A61082323772368DB69E0
:1012B00013F4407F46D02046FFF79EFF002323779C
:1012C00023681A6912F0010F03D0DA6812F0010FD7
:1012D0003FD123681A6912F0800F03D0DA6812F048
:1012E000800F3DD123681A6912F4807F03D0DA6839
:1012F00012F0800F3BD123681A6912F0400F03D01F
:10130000DA6812F0400F39D123681A6912F0200F01
:1013100003D0DA6812F0200F37D110BDFFF76BFF52
:101320002046FFF76AFF81E72046FFF764FF20466B
:10133000FFF763FF92E72046FFF75DFF2046FFF7C8
:101340005CFFA3E72046FFF756FF2046FFF755FF57
:10135000B4E76FF001021A61204602F087FBB8E79C
:101360006FF080021A61204600F08CF8BAE76FF443
:1013700080721A61204600F086F8BCE76FF04002E8
:101380001A612046FFF73AFFBEE76FF020021A61AC
:10139000204600F076F8C0E703682C4A90420ED051
:1013A000B0F1804F0BD0A2F59432904207D002F5F5
:1013B0008062904203D002F59632904203D123F02E
:1013C00070034A681343214A90421AD0B0F1804F0B
:1013D00017D0A2F59432904213D002F58062904269
:1013E0000FD002F5963290420BD002F54062904247
:1013F00007D002F58062904203D002F580629042ED
:1014000003D123F44073CA68134323F080034A696D
:10141000134303608B68C3620B6883620B4B984273
:101420000FD003F5006398420BD003F54063984258
:1014300007D003F58063984203D003F58063984298
:1014400001D10B690363012343617047002C014004
:10145000A8B110B5044690F83D305BB1022384F882
:101460003D30211D2068FFF797FF012384F83D30B0
:10147000002010BD80F83C30FFF7B0FEEEE7012001
:1014800070477047704770470268136823F0C003C5
:101490001360202380F8693070470268136823F4D2
:1014A000907313600268936823F001039360202314
:1014B00080F86A307047000038B590F86A50EDB295
:1014C000202D38D1002938D0002A38D090F8683043
:1014D000012B36D013460446012280F8682041656E
:1014E000A0F858300025C566222280F86A20426E96
:1014F00015499162426E1549D162426E14491163D9
:10150000426E55630168426D2431406EFEF760FF04
:1015100084F868502268136843F48073136022686B
:10152000936843F0010393602268936843F040039B
:101530009360284600E0022038BD0120FCE701202E
:10154000FAE70220F8E700BF5515000897150008D4
:10155000A315000808B5436A0268126812F0200F4C
:1015600014D10022A3F85A2019680A6822F4807264
:101570000A6019688A6822F001028A6019688A681C
:1015800022F040028A60202283F86A20184602F086
:101590003FFA08BD704708B5406AFFF7FBFF08BD7A
:1015A000704710B5446A94F86930DBB2212B0CD037
:1015B00094F86A30DBB2222B13D0E36E43F01003B1
:1015C000E3662046FFF7ECFF10BD23689B6813F02D
:1015D000800FEDD00023A4F852302046FFF754FFCF
:1015E000E6E723689B6813F0400FE6D00023A4F8D9
:1015F0005A302046FFF751FFDFE7000010B50446E0
:1016000083680269134342691343C2691A4301683C
:101610000B6823F4164323F00C0313430B6002689A
:10162000536823F44053C1680B4353608369026AD3
:101630001A4301688B6823F4306313438B6003689B
:10164000914A93421FD0914A93422FD0904A93429D
:1016500046D0904A93425DD08F4A934274D0102274
:10166000E169B1F5004F00F08B80082A00F20A8191
:10167000DFE812F0CE00DA00E6000801F20008010F
:1016800008010801FE0002F55842126B02F0030245
:10169000032A09D8DFE802F0020406720122DFE71C
:1016A0000422DDE70822DBE71022D9E702F5E63263
:1016B000126B02F44032B2F5803F0BD007D9B2F57D
:1016C000003F09D0B2F5403F08D10222C8E72AB94D
:1016D0000022C5E70422C3E70822C1E71022BFE7C2
:1016E00002F5E432126B02F44022B2F5802F0BD0E7
:1016F00007D9B2F5002F09D0B2F5402F08D1022248
:10170000AEE72AB90022ABE70422A9E70822A7E73F
:101710001022A5E702F5E232126B02F44012B2F594
:10172000801F0BD007D9B2F5001F09D0B2F5401FBA
:1017300008D1022294E72AB9002291E704228FE718
:1017400008228DE710228BE702F5E032126B02F4DB
:101750004002B2F5800F0BD007D9B2F5000F09D0C7
:10176000B2F5400F08D102227AE72AB9002277E7C2
:10177000042275E7082273E7102271E702226FE75F
:10178000082A42D8DFE802F0051722412D414141E5
:101790003800FFF7A5FB6268530803EB4003B3FB77
:1017A000F2F39BB2002023F00F02C3F34203134372
:1017B0002268D36010BDFFF7A9FB6268530803EBF2
:1017C0004003B3FBF2F39BB20020ECE762685308DE
:1017D00003F5740303F51053B3FBF2F39BB200203F
:1017E000E1E7FFF76FFA6268530803EB4003B3FBCE
:1017F000F2F39BB20020D6E76268530803F580330A
:10180000B3FBF2F39BB20020CDE701200023CAE72F
:10181000FFF766FB636800EB5300B0FBF3F023684F
:1018200080B2D8600020C5E7FFF770FB636800EB6B
:101830005300B0FBF3F0236880B2D8600020B9E712
:1018400061684A0802F5F40202F59052B2FBF1F227
:1018500092B2DA600020ADE7FFF734FA636800EB7C
:101860005300B0FBF3F0236880B2D8600020A1E7FA
:1018700061684A0802F50042B2FBF1F292B2DA6006
:10188000002097E7012095E7003801400044004020
:1018900000480040004C004000500040436A13F0F4
:1018A000010F06D00268536823F40033816A0B43AA
:1018B0005360436A13F0020F06D00268536823F4A2
:1018C0008033C16A0B435360436A13F0040F06D0A0
:1018D0000268536823F48023016B0B435360436A0F
:1018E00013F0080F06D00268536823F40043416BDD
:1018F0000B435360436A13F0100F06D002689368DD
:1019000023F48053816B0B439360436A13F0200FE1
:1019100006D00268936823F40053C16B0B439360B5
:10192000436A13F0400F0AD00268536823F480130F
:10193000016C0B435360036CB3F5801F0BD0436AFB
:1019400013F0800F06D00268536823F40023816CE3
:101950000B43536070470268536823F4C003416C23
:101960000B435360EBE72DE9F04105460F46164661
:101970009846069C2B68DB6937EA03030CBF0123FA
:101980000023B3421DD1B4F1FF3FF3D02CB1FEF7D9
:101990003DFCA0EB0800A042ECD92A68136823F4B0
:1019A000D07313602A68936823F0010393602023A7
:1019B00085F8693085F86A30002385F8683003209F
:1019C00000E00020BDE8F0812DE9F04182B01E4624
:1019D00090F86930DBB2202B4ED104460D4690467C
:1019E00000294ED0002A4ED090F86830012B4CD000
:1019F000012380F868300023C366212380F8693012
:101A0000FEF704FC0746A4F85080A4F8528003E0D7
:101A100023682A781A850135B4F852309BB2DBB1BD
:101A2000B4F85230013B9BB2A4F8523000963B46CA
:101A3000002280212046FFF796FF40BBA368B3F544
:101A4000805FE5D12369002BE2D1226835F8023BA3
:101A5000C3F308031385DFE700963B4600224021CD
:101A60002046FFF780FF034698B9202284F86920BA
:101A7000002284F8682000E00223184602B0BDE886
:101A8000F0810123F9E70123F7E70223F5E70323B8
:101A9000F3E70323F1E730B583B004460023C366C0
:101AA000FEF7B4FB054623681B6813F0080F0ED140
:101AB00023681B6813F0040F17D1202384F86930C2
:101AC00084F86A30002084F8680003B030BD6FF0FD
:101AD0007E430093034600224FF400112046FFF797
:101AE00042FF0028E4D00320EFE76FF07E4300932D
:101AF0002B4600224FF480012046FFF734FF0028D8
:101B0000DBD00320E1E778B310B5044690F86930E4
:101B10000BB3242384F869302268136823F001038F
:101B200013602046FFF76AFD012813D0636ABBB932
:101B30002268536823F4904353602268936823F02B
:101B40002A0393602268136843F001031360204660
:101B5000FFF7A1FF10BD80F8683002F0A9F8D8E7C0
:101B60002046FFF79BFEE3E701207047842801D061
:101B70000330704700207047EFF30580003018BF36
:101B80000120704708B500F09FFD002008BDF0B5AA
:101B900085B00F46446805680669B0F90800FFF78C
:101BA000E5FF03AB019300903B46B2B229462046C5
:101BB00000F058FD012802D1039805B0F0BD0020C7
:101BC000FBE708B5034600B90123184600F0C8FE3C
:101BD000002008BD00B583B01346012909D00022BA
:101BE000016800910121044801F0AAF903B05DF8F1
:101BF00004FB0122F4E700BF5C3F000830B585B06C
:101C00000546002303930C4601B90124FFF7B4FFF6
:101C1000A8B10023009303AB22460921284601F016
:101C2000A9F9012817D1039BBBB10E4B4FF080528D
:101C30001A60BFF34F8FBFF36F8F002009E00023BE
:101C4000009322460421284601F094F9012806D188
:101C5000002005B030BDFF20FBE70020F9E7FF20A2
:101C6000F7E700BF04ED00E010B584B004460023A0
:101C70000393FFF781FFA0B10022009203AB08217C
:101C8000204601F077F9012817D1039BBBB10E4B19
:101C90004FF080521A60BFF34F8FBFF36F8F002059
:101CA00009E00022009213460321204601F062F968
:101CB000012806D1002004B010BDFF20FBE7002062
:101CC000F9E7FF20F7E700BF04ED00E010B50129B8
:101CD0000DD103220021012000F04AF9044620B171
:101CE00000231A46194600F067F9204610BD00246B
:101CF000FBE708B500F0B6FF012801D001F082FB38
:101D000008BD00F1080343604FF0FF328260C360FA
:101D10000361002303607047002303617047436839
:101D20004B609A688A609A6851609960086103689C
:101D300001330360704730B40D68B5F1FF3F02D046
:101D400000F1080202E0026904E01A4653681C68C8
:101D5000AC42FAD953684B6099608A60516008615F
:101D600003680133036030BC7047036942688168CF
:101D700091608268416851605A68824205D00022B1
:101D80000261186801381860704782685A60F6E787
:101D900010B5044601F0C6FAA26BE36B9A4204D078
:101DA000002401F0E1FA204610BD0124F9E710B546
:101DB000044601F0B7FAA36B23B1002401F0D4FA72
:101DC000204610BD0124F9E770B504461646856B20
:101DD000026C5AB903681BB100200135A56370BDC0
:101DE000406800F0A5FF00236360F6E76EB98068E5
:101DF00002F074F8226CA3681344A36062689342F3
:101E000019D32368A3600020E7E7C06802F066F8F2
:101E1000226C5242E3681344E36021688B4202D291
:101E200063681A44E260022E01D00020D5E725B194
:101E3000013D0020D1E70020CFE70020CDE7026C74
:101E400072B110B5C3681344C3604468A34201D3A0
:101E50000368C3600C46C168204602F03FF810BD1D
:101E6000704738B5054601F05DFA95F8454064B213
:101E700003E000F0EFFE013C64B2002C08DD6B6A69
:101E800033B105F1240000F04FFE0028F3D0F0E755
:101E9000FF2385F8453001F067FA01F043FA95F821
:101EA000444064B203E000F0D5FE013C64B2002C73
:101EB00008DD2B6933B105F1100000F035FE002874
:101EC000F3D0F0E7FF2385F8443001F04DFA38BD38
:101ED00038B540B94FF0500383F31188BFF36F8FCB
:101EE000BFF34F8FFEE704460D4601F01BFA216851
:101EF000E26B236C03FB021060600020A063A16012
:101F0000013A02FB0313E360FF2384F8443084F8B2
:101F10004530A5B923691BB901F026FA012038BD67
:101F200004F1100000F000FE0028F5D0084B4FF03F
:101F300080521A60BFF34F8FBFF36F8FECE704F14D
:101F40001000FFF7DEFE04F12400FFF7DAFEE3E7FE
:101F500004ED00E010B5029B0C4639B11A60D8635D
:101F60001C6401211846FFF7B3FF10BD1B60F6E7A4
:101F700040B94FF0500383F31188BFF36F8FBFF365
:101F80004F8FFEE7F0B583B0054611B101FB00F0BD
:101F900000E0002017460C46483001F04FFB064693
:101FA00038B100903B4600F1480221462846FFF731
:101FB000D1FF304603B0F0BDF0B585B0019260B1FD
:101FC000044699B9026C8AB14FF0500383F311882B
:101FD000BFF36F8FBFF34F8FFEE74FF0500383F3D4
:101FE0001188BFF36F8FBFF34F8FFEE7022B0BD12A
:101FF000E26B012A08D04FF0500383F31188BFF33E
:102000006F8FBFF34F8FFEE71E460F4600F02AFE8C
:1020100050B9019B53B14FF0500383F31188BFF3C4
:102020006F8FBFF34F8FFEE700253AE0002538E0C1
:10203000324639462046FFF7C7FE636A4BB9A8B15E
:102040003B4B4FF080521A60BFF34F8FBFF36F8F3F
:102050000CE004F1240000F067FD38B1344B4FF080
:1020600080521A60BFF34F8FBFF36F8F01F07CF97E
:10207000012005B0F0BD01F077F90020F9E702A8D2
:1020800000F094FD012519E0002384F8443021E09C
:10209000002384F8453023E02046FFF7E2FE00F0FD
:1020A000E7FB01F03FF9A26BE36B9A42C0D3022E2B
:1020B000BED0019B002BDED0002DE0D001F054F902
:1020C00000F040FB01F02EF994F844305BB2B3F11C
:1020D000FF3FD9D094F845305BB2B3F1FF3FD7D082
:1020E00001F042F901A902A800F074FDC8B9204628
:1020F000FFF74EFE0028CFD0019904F1100000F048
:10210000DBFC2046FFF7ADFE00F0B2FB0028C8D193
:10211000074B4FF080521A60BFF34F8FBFF36F8FA2
:10212000BFE72046FFF79DFE00F0A2FB0020A0E7DE
:1021300004ED00E02DE9F84360B1044699B9006C64
:1021400088B14FF0500383F31188BFF36F8FBFF353
:102150004F8FFEE74FF0500383F31188BFF36F8F6B
:10216000BFF34F8FFEE7022B0BD1E06B012808D0A5
:102170004FF0500383F31188BFF36F8FBFF34F8F7E
:10218000FEE71F469046894601F0DCF9EFF3118621
:102190004FF0500383F31188BFF36F8FBFF34F8F5E
:1021A000A26BE36B9A4203D3022F01D000200FE011
:1021B00094F845506DB23A4649462046FFF704FE72
:1021C000B5F1FF3F08D06B1C5BB284F845300120AD
:1021D00086F31188BDE8F883636A5BB104F12400DB
:1021E00000F0A2FC40B1B8F1000F07D00120C8F800
:1021F0000000EDE70120EBE70120E9E70120E7E738
:102200002DE9F04184B0019260B1044699B9026CA5
:102210008AB14FF0500383F31188BFF36F8FBFF380
:102220004F8FFEE74FF0500383F31188BFF36F8F9A
:10223000BFF34F8FFEE71F46884600F013FD50B9ED
:10224000019B53B14FF0500383F31188BFF36F8F9D
:10225000BFF34F8FFEE700265FE000265DE0E668F3
:1022600041462046FFF7EBFDDFB9013DA56323683A
:1022700013B900F0B5FD6060236963B104F110008B
:1022800000F052FC38B1464B4FF080521A60BFF359
:102290004F8FBFF36F8F01F067F8012004B0BDE8E6
:1022A000F081E660636A002BF5D004F1240000F0B1
:1022B0003BFC0028EFD03A4B4FF080521A60BFF33E
:1022C0004F8FBFF36F8FE6E701F04EF80020E5E790
:1022D00002A800F06BFC012629E0002384F84430BA
:1022E00031E0002384F8453033E001F01BF86068EA
:1022F00000F0C8FC01F038F83BE02046FFF7B1FDE4
:1023000000F0B6FA09E02046FFF7ABFD00F0B0FAA6
:102310002046FFF74CFD002840D101F003F8A56BE3
:10232000002D9CD1019B002BCED0002ED0D001F0EF
:102330001BF800F007FA00F0F5FF94F844305BB2A8
:10234000B3F1FF3FC9D094F845305BB2B3F1FF3F22
:10235000C7D001F009F801A902A800F03BFC002851
:10236000D1D12046FFF723FD0028C6D02368002BDB
:10237000BBD0019904F1240000F09EFB2046FFF73A
:1023800070FD00F075FA0028C7D1054B4FF0805260
:102390001A60BFF34F8FBFF36F8FBEE700207DE75A
:1023A00004ED00E00023072B0CD8074A52F8332035
:1023B0000AB10133F7E7044A42F8331002EBC303D2
:1023C00058607047704700BFC021002070B50446B8
:1023D0000D46164600F0A6FF94F844305BB2B3F108
:1023E000FF3F0DD094F845305BB2B3F1FF3F0BD007
:1023F00000F0BAFFA36B5BB12046FFF732FD70BD62
:10240000002384F84430EDE7002384F84530EFE7FB
:102410003246294604F1240000F068FBECE7000096
:10242000074B9B6A1B6833B1054B9A6AD268D26826
:102430005268DA627047024B4FF0FF32DA6270473F
:102440003000002010B50446006B01F071F9204601
:1024500001F06EF910BD2DE9F04780469946089DC0
:10246000099F0A9C266B02F18042013A06EB820624
:1024700026F0070600230F2B07D8C85CE21882F865
:102480003400CA5C0AB10133F5E7002384F8433015
:10249000062D00D90625E56265644FF0000AC4F8F0
:1024A00048A0201DFFF738FC04F11800FFF734FCAA
:1024B0002461C5F10705A5616462C4F84CA084F8E5
:1024C00050A04A464146304600F0FEFE206007B16B
:1024D0003C60BDE8F087000070B5002407E004EB25
:1024E0008402930010481844FFF70BFC0134062CBB
:1024F000F5D90E4C04F1BC063046FFF702FC04F19E
:10250000D0052846FFF7FDFB04F11400FFF7F9FBA7
:1025100004F1E400FFF7F5FB2046FFF7F2FBA662AB
:10252000C4F8F85070BD00BF6000002030000020EB
:1025300038B5054600F0F6FE264BD3F8FC200132F4
:10254000C3F8FC20D3F8003173B1224BD3F8043127
:102550008BB9204BD3F80031DA6AEB6A9A420AD879
:102560001C4BC3F8005106E01A4BC3F80051D3F8D6
:10257000FC30012B2AD0174CD4F808310133C4F8B1
:102580000831EB6A01229A40D4F80C110A43C4F8CE
:102590000C2104F1300003EB83039A00291D104441
:1025A000FFF7BDFB00F0E0FED4F804316BB1D4F8C6
:1025B0000031DA6AEB6A9A4207D2074B4FF0805239
:1025C0001A60BFF34F8FBFF36F8F38BDFFF784FFE3
:1025D000D1E700BF3000002004ED00E070B50446F4
:1025E0000E461F4BD3F81051D3F800010430FFF70B
:1025F000BCFB60B91A4BD3F80021D16A012202FA60
:1026000001F1D3F80C2122EA0102C3F80C21B4F144
:10261000FF3F12D02C44124BD3F800315C60A5422E
:1026200014D80F4DA86AD5F800110431FFF783FBC9
:10263000EB6AA34212D9EC6210E0002EEAD00848FF
:10264000D0F800110431FFF76AFB07E0044BD3F820
:10265000F800D3F800110431FFF76DFB70BD00BF27
:10266000300000202DE9F04385B007468846154626
:102670009946900000F0E2FFF8B10646542000F0C1
:10268000DDFF0446A8B10663D4B10023039302948E
:102690000D9B01930C9B00934B462A4641463846BE
:1026A000FFF7D9FE2046FFF743FF012005B0BDE844
:1026B000F083304601F03CF8E6E74FF0FF30F5E7F5
:1026C0004FF0FF30F2E7000000B583B0194B0193E3
:1026D00000230093802218491848FFF7C3FF012800
:1026E00007D0012808D0B0F1FF3F1AD003B05DF841
:1026F00004FB00F0FDFBF4E74FF0500383F3118877
:10270000BFF36F8FBFF34F8F0D4B4FF0FF32DA6285
:102710000122C3F804210022C3F8102100F09EFE1C
:10272000E4E74FF0500383F31188BFF36F8FBFF3DB
:102730004F8FFEE74C010020583F0008012A000897
:1027400030000020034AD2F818310133C2F81831A2
:10275000704700BF30000020014BD3F810017047D4
:10276000300000202DE9F041404BD3F81831002B08
:102770006CD13E4BD3F810510135C3F81051CDB98F
:102780009B6A1B6843B14FF0500383F31188BFF37A
:102790006F8FBFF34F8FFEE7344B9A6AD3F8F81070
:1027A0009962C3F8F820D3F820210132C3F8202120
:1027B000FFF736FE2D4BDB6AAB423DD900242B4A96
:1027C000D2F80031DB6A03EB830399000A44136BF0
:1027D000012B42D9012440E00124244B9B6A1B6851
:1027E00063B3224B9B6ADB68DE6873689D422AD321
:1027F00006F104084046FFF7B8FAB36A1BB106F1C8
:102800001800FFF7B2FAF36A01229A40174FD7F87F
:102810000C110A43C7F80C2107F1300003EB8303C6
:102820009A0041461044FFF77AFAF26AD7F800316D
:10283000DB6A9A42D0D2D0E70024CEE70B4B4FF0B0
:10284000FF32DA62BBE7094AD362B8E7074AD2F837
:1028500024310133C2F824310024044BD3F8283149
:1028600003B101242046BDE8F08100BF3000002004
:10287000394BD3F8183143B94FF0500383F3118823
:10288000BFF36F8FBFF34F8FFEE770B500F04AFDC7
:10289000314BD3F81821013AC3F81821D3F8183175
:1028A000002B54D12C4BD3F8FC3023B9002400F07A
:1028B0005BFD204670BD0024274B5B692BB3264D82
:1028C0002B6ADC6804F11800FFF74FFA261D30462A
:1028D000FFF74BFAE36A01229A40D5F80C110A433C
:1028E000C5F80C2105F1300003EB83039A00314653
:1028F0001044FFF714FAE26AD5F80031DB6A9A4215
:10290000DAD30122C5F82821D6E70CB1FFF788FDFC
:10291000114BD3F8244164B1FFF724FF18B10E4BDB
:102920000122C3F82821013CF6D10B4B0022C3F849
:102930002421094BD3F828315BB1084B4FF080526A
:102940001A60BFF34F8FBFF36F8F0124AFE70024EE
:10295000ADE70024ABE700BF3000002004ED00E04D
:1029600010B5B0B104460F4BD3F8183143B14FF056
:10297000500383F31188BFF36F8FBFF34F8FFEE7D0
:10298000FFF7E0FE00212046FFF728FEFFF770FF6B
:1029900038B9054B4FF080521A60BFF34F8FBFF329
:1029A0006F8F10BD3000002004ED00E038B5134BF0
:1029B000D3F814310BB3FFF7C5FE104BD3F8E44046
:1029C000FFF756FF002CF2D000F0ACFC0B4CD4F813
:1029D000F030DD68281DFFF7C8F9D4F8FC30013B62
:1029E000C4F8FC30D4F81431013BC4F8143100F0C1
:1029F000BBFC2846FFF726FDD9E738BD3000002094
:102A000008B5FFF7D3FF064B1B6B012BF9D9054B1C
:102A10004FF080521A60BFF34F8FBFF36F8FF0E714
:102A20003000002004ED00E0224BD3F8183123B130
:102A3000204B0122C3F8282170471E4A0023C2F808
:102A40002831D2F80C31B3FA83F3DBB2C3F11F03A0
:102A500003EB830081000A44126B42B94FF050032C
:102A600083F31188BFF36F8FBFF34F8FFEE710B46E
:102A7000104A9900CC18A0001044446B6468446369
:102A80003032194488000830024494420BD009497E
:102A900003EB83039A000A44536BDB68C1F80031EF
:102AA0005DF8044B704761680248142202FB030280
:102AB0005163ECE73000002040B94FF0500383F33E
:102AC0001188BFF36F8FBFF34F8FFEE710B50C4631
:102AD000054BD3F800111831FFF72DF901212046DD
:102AE000FFF77CFD10BD00BF3000002038B540B9B5
:102AF0004FF0500383F31188BFF36F8FBFF34F8FF5
:102B0000FEE70C461546074AD2F800111831FFF7C8
:102B100006F90DB14FF0FF3429462046FFF75EFD60
:102B200038BD00BF3000002038B5C368DC6844B948
:102B30004FF0500383F31188BFF36F8FBFF34F8FB4
:102B4000FEE704F118052846FFF70FF9154BD3F8F7
:102B5000183103BB251D2846FFF707F9E36A012159
:102B60009940104AD2F80C010143C2F80C113032DE
:102B700003EB8303980029461044FFF7D0F8E26A7C
:102B8000084BD3F80031DB6A9A4209D90120054B82
:102B9000C3F8280138BD29460348FFF7C0F8EEE71F
:102BA0000020F7E7300000204400002038B1084A38
:102BB000D2F820110160D2F81021426070474FF026
:102BC000500383F31188BFF36F8FBFF34F8FFEE77E
:102BD0003000002038B550B1044689B94FF0500399
:102BE00083F31188BFF36F8FBFF34F8FFEE74FF072
:102BF000500383F31188BFF36F8FBFF34F8FFEE74E
:102C00000D4600F08FFB124BD3F810112B68B3F177
:102C1000FF3F19D020680E4AD2F82021904202D0FE
:102C200062688A4212D96268881A834204D80124F1
:102C300000F09AFB204638BD521A13442B60204600
:102C4000FFF7B4FF0024F3E70024F1E70124EFE7E6
:102C500030000020024B0122C3F82821704700BF3A
:102C600030000020064BD3F804313BB1044BD3F8BD
:102C700018310BB1002070470220704701207047C7
:102C80003000002000284DD038B50546C26A2649DC
:102C9000D1F80011C96A8A4216D28169002906DB7F
:102CA0002149D1F80011C96AC1F107018161686940
:102CB00002EB820291001D4A0A44904205D01A4A52
:102CC000D2F80021D26AEA6238BD2C1D2046FFF7F7
:102CD0004CF8A0B11448D0F80031DB6AEB62012255
:102CE0009A40D0F80C110A43C0F80C21303003EBA5
:102CF00083039A0021461044FFF711F8E4E7EA6ADB
:102D000002EB82039900084B0B441B6B002BE1D1B3
:102D1000012393400449D1F80C2122EA0302C1F8AF
:102D20000C21D7E7704700BF300000206000002072
:102D300000284DD038B50446284AD2F800218242F6
:102D400008D04FF0500383F31188BFF36F8FBFF3A8
:102D50004F8FFEE7826C42B94FF0500383F3118826
:102D6000BFF36F8FBFF34F8FFEE7013A8264C06AF3
:102D7000616C88422ED07ABB251D2846FEF7F5FFF0
:102D800078B9E26A1549142303FB02131B6B43B99C
:102D9000012303FA02F2D1F80C3123EA0203C1F84D
:102DA0000C31626CE262C2F10703A361012404FAF0
:102DB00002F10A4BD3F80C010143C3F80C11303374
:102DC0002946142000FB0230FEF7A9FF204638BD3B
:102DD000002070470020FAE70020F8E730000020CC
:102DE000064BD3F800312BB1044BD3F80021936C80
:102DF00001339364014BD3F8000170473000002089
:102E0000064B1A681368B3FA83F35B09036013B9BE
:102E1000D368186870470020704700BF5C0100202D
:102E200008B54160006191420CD8D21A83699A4278
:102E300001D3012010E0011D094B5868FEF77BFF0C
:102E4000002009E09A4201D2994206D2011D044BAA
:102E50001868FEF770FF002008BD0120FCE700BFE6
:102E60005C01002070B500F05DFA0F4B9B6813B158
:102E700000F07AFA70BD0C4C04F10C063046FEF7F7
:102E800040FF04F120052846FEF73BFF2660656001
:102E900000220C210A20FFF76BF8A0600028E7D081
:102EA0000249FFF77FFAE3E75C010020603F00087A
:102EB0002DE9F041079C41B94FF0500383F311888D
:102EC000BFF36F8FBFF34F8FFEE70F4674B11D4600
:102ED00016468046FFF7C6FFC4F80080A761E6618A
:102EE0002562069B6362201DFEF716FFBDE8F08198
:102EF00000B583B0FFF7B6FF0D4B9B685BB10D4B80
:102F000001930223009300234FF480720A490B4877
:102F1000FFF7A8FB40B94FF0500383F31188BFF3CC
:102F20006F8FBFF34F8FFEE703B05DF804FB00BF68
:102F30005C01002090010020683F00084932000831
:102F40002DE9F04182B005460E46174698462820E6
:102F500000F074FB044640B10190089B0093434687
:102F60003A4631462846FFF7A3FF204602B0BDE8A7
:102F7000F0810000C8B130B585B015460446174A47
:102F8000906840B31A4601910295039405291DDC0F
:102F9000FFF768FE022811D000231A4601A90F4846
:102FA0008068FFF709F805B030BD4FF0500383F398
:102FB0001188BFF36F8FBFF34F8FFEE70023089A8E
:102FC00001A906488068FEF7F7FFECE7002301A996
:102FD000FFF7B0F8E7E70020E5E700BF5C0100205D
:102FE000204B1B681A68002A37D070B582B0DB68A6
:102FF0001E68DC68251D2846FEF7B7FE636A20467A
:103000009847E369012B0AD0164B1B681A68002AFF
:10301000EDD1144A51681160536002B070BDA369CC
:1030200033449E4207D26360246129460D4B1868E1
:10303000FEF781FEE8E7002100910B46324620466C
:10304000FFF798FF0028DFD14FF0500383F311887A
:10305000BFF36F8FBFF34F8FFEE7024A51681160D5
:10306000536070475C01002038B50546FFF774FBDC
:103070000446074B9B6B834205D800232B60044B0F
:103080009C63204638BDFFF7ABFF01232B60F6E7BA
:103090005C01002070B582B005460E46144B1B68DB
:1030A000DB68DC68201DFEF760FEE369012B04D0BD
:1030B000636A2046984702B070BDA1692B4632462C
:1030C00029442046FFF7ACFE0028F1D000210091F2
:1030D0000B462A462046FFF74DFF0028E8D14FF067
:1030E000500383F31188BFF36F8FBFF34F8FFEE759
:1030F0005C01002070B582B006460C46FFF722FB4B
:1031000001A8FFF7B1FF019B1BBB05460CB9B042FC
:1031100018D22CB1114B5B681C68B4FA84F46409B2
:103120002246711B0D4B9868FFF750F9FFF7A0FB83
:1031300088B90B4B4FF080521A60BFF34F8FBFF32B
:103140006F8F08E0FFF794FB29463046FFF7A2FF98
:1031500001E0FFF78DFB02B070BD00BF5C010020F5
:1031600004ED00E030B587B000231A4603A93548C6
:103170008068FFF745F8002861D0039B002BF3DB44
:10318000059C636913B1201DFEF7EFFD02A8FFF750
:103190006BFF039B092BE7D801A252F823F000BF75
:1031A000C9310008C9310008C93100086931000877
:1031B0001132000837320008C9310008C93100084F
:1031C00069310008113200080499A5690B460246CE
:1031D00029442046FFF724FE0028C5D0636A204614
:1031E0009847E369012BBFD1A269002100910B46EA
:1031F000049802442046FFF7BDFE0028B4D14FF0EA
:10320000500383F31188BFF36F8FBFF34F8FFEE737
:103210000499A16131B10346024601442046FFF7FB
:10322000FFFDA1E74FF0500383F31188BFF36F8FC9
:10323000BFF34F8FFEE7204600F07AFA94E707B01D
:1032400030BD00BF5C01002000B583B001A8FFF7CE
:10325000D7FD0199FFF74EFFFFF784FFF6E7000067
:103260000B4B1B68B3F1FF3F08D04FF0500383F3C3
:103270001188BFF36F8FBFF34F8FFEE74FF05003FE
:1032800083F31188BFF36F8FBFF34F8FFEE700BF4B
:103290000800002006480068006880F3088862B6CD
:1032A00061B6BFF34F8FBFF36F8F00DF00BF000029
:1032B00008ED00E0DFF80C00016841F470010160E6
:1032C0007047000088ED00E04FF0807340F8043C48
:1032D00021F0010140F8081C054B40F80C3C40F877
:1032E000202C6FF0020340F8243C4438704700BFA4
:1032F0006132000800000000000000000000000033
:10330000074B19680868B0E8F04F80F30988BFF3ED
:103310006F8F4FF0000080F311887047AFF300808B
:10332000300100204FF0500383F31188BFF36F8FFB
:10333000BFF34F8F0A4A136801331360012B00D08B
:103340007047084B1B6813F0FF0FF9D04FF0500384
:1033500083F31188BFF36F8FBFF34F8FFEE700BF7A
:103360000800002004ED00E0094B1B6843B94FF052
:10337000500383F31188BFF36F8FBFF34F8FFEE7C6
:10338000013B034A13600BB983F31188704700BFF8
:103390000800002000000000000000000000000005
:1033A000EFF30980BFF36F8F154B1A681EF0100FF3
:1033B00008BF20ED108A20E9F04F10604DF8043D61
:1033C0004FF0500080F31188BFF34F8FBFF36F8F22
:1033D000FFF72AFB4FF0000080F3118808BC196842
:1033E0000868B0E8F04F1EF0100F08BFB0EC108A6C
:1033F00080F30988BFF36F8F704700BFAFF3008081
:103400003001002008B54FF0500383F31188BFF35B
:103410006F8FBFF34F8FFFF7A5F918B1034B4FF034
:1034200080521A60002383F3118808BD04ED00E088
:10343000064B1B68064AA2FB03239B09013B054A76
:103440001360054B07221A60704700BF1000002070
:10345000D34D621014E000E010E000E0314B1A6838
:10346000314B9A420DD02F4B1A68304B9A4211D1F2
:103470004FF0500383F31188BFF36F8FBFF34F8F6B
:10348000FEE74FF0500383F31188BFF36F8FBFF354
:103490004F8FFEE700B583B0254B1A78D2B2019268
:1034A000FF221A701B78DBB28DF803309DF80330D1
:1034B00003F050031F4A1370072353609DF8033035
:1034C00013F0800F0AD01B4A5368013B53609DF8EC
:1034D00003305B00DBB28DF80330EFE7154A536829
:1034E0001B0203F4E0635360019BDBB2104A1370CC
:1034F000114B1A6842F470021A601A6842F0704266
:103500001A60FFF795FF0D4B00221A60FFF7D2FEFD
:103510000B4A136843F040431360FFF7BBFEFFF70D
:103520009FFE00BF00ED00E071C20F4170C20F416D
:1035300000E400E09801002020ED00E008000020F9
:1035400034EF00E0EFF305830F2B0FD9104A9B5C9B
:10355000DBB2104A12789A4208D94FF0500383F335
:103560001188BFF36F8FBFF34F8FFEE70A4B1B68C5
:1035700003F4E063074A5268934208D94FF05003BE
:1035800083F31188BFF36F8FBFF34F8FFEE7704750
:10359000F0E300E0980100200CED00E0104A12F08A
:1035A000070F1AD0D11D21F00701C1F500531344B4
:1035B0000A460C490A60002048601344083B23F087
:1035C00007038B6058601860981A50601360C860D9
:1035D00008614FF000434B6170474FF40053E8E738
:1035E000B8010020A001002010B4134B1A688242D9
:1035F0001BD359685C18844203D140680144596068
:10360000184641684418A24213D10B4CA468A24248
:103610000DD05268114441601A68126802609842E5
:1036200000D018605DF8044B70471346DEE7046075
:10363000F5E70260F3E700BFA001002070B5044683
:10364000FFF780F8394B9B68BBB1384B5B691C4274
:1036500062D1ACB1083414F0070F11D024F0070484
:10366000083404F007035BB14FF0500383F3118873
:10367000BFF36F8FBFF34F8FFEE7FFF78FFFE4E7D6
:10368000002C4BD0294B1B69A34249D3274B1D6803
:1036900001E02B4615466A68A24202D22A68002A37
:1036A000F7D1224A9268AA423CD01E6808362A689E
:1036B0001A606B681B1B102B10D9281910F0070F0C
:1036C00008D04FF0500383F31188BFF36F8FBFF31F
:1036D0004F8FFEE743606C60FFF786FF6968134A0F
:1036E00013695B1A1361D268934201D20F4AD36007
:1036F0000E4B5B690B436B6000232B60FFF7B8F840
:1037000016F0070F10D04FF0500383F31188BFF36A
:103710006F8FBFF34F8FFEE70026EFE70026EDE740
:103720000026EBE70026E9E7304670BDA001002047
:1037300080B338B50446A0F1080550F8042C1649AA
:1037400049690A4208D14FF0500383F31188BFF34F
:103750006F8FBFF34F8FFEE750F8080C40B14FF06A
:10376000500383F31188BFF36F8FBFF34F8FFEE7D2
:1037700022EA010244F8042CFEF7E4FF54F8041C8A
:10378000054A13690B4413612846FFF72DFFFFF725
:103790006FF838BD704700BFA001002070B58CB035
:1037A000454B5A6942F400125A615A6902F40012F8
:1037B0000192019A5A6942F400225A615A6902F44C
:1037C00000220292029A5A6942F480025A615A69AE
:1037D00002F480020392039A5A6942F400325A6159
:1037E0005A6902F400320492049A5A6942F480122F
:1037F0005A615A6902F480120592059A5A6942F494
:1038000080225A615B6903F480230693069B2B4E4A
:1038100000224FF608713046FCF73FFF372307932D
:10382000274B08930024099407A93046FCF764FE4F
:103830004FF6087307930125089509940A9407A980
:103840003046FCF759FE07950894099407A94FF0F4
:103850009040FCF751FEE023079302260896099456
:103860000A9405230B9307A94FF09040FCF744FE00
:103870004FF4C05307930896099403230A930E2329
:103880000B9307A94FF09040FCF736FEFF230793F8
:103890000894099607A90B48FCF72EFEC02307934E
:1038A0001223089309950A9404230B9307A9064849
:1038B000FCF722FE0CB070BD001002400010004862
:1038C00000001210000C00480004004800B583B04E
:1038D0000A4B5A6942F001025A615B6903F0010325
:1038E0000193019B002205211020FCF7A7FC10206A
:1038F000FCF7D8FC03B05DF804FB00BF00100240E9
:1039000008B5022203490448FDF7D6FD0120FEF761
:1039100058F9F6E7002200206C22002038B5184D37
:1039200001212846FCF7B2FE164C207002212846E1
:10393000FCF7ACFE607004212846FCF7A7FEA070DF
:1039400008212846FCF7A2FEE07010212846FCF76B
:103950009DFE207120212846FCF798FE60714021D1
:103960002846FCF793FEA07180212846FCF78EFEC6
:10397000E0714FF400510448FCF794FE38BD00BFDD
:10398000000C0048502200200010004808B5174ADB
:103990001378013303F0010348BF5B4213704FF407
:1039A00080511348FCF77EFE124B5B7823B10F4B1E
:1039B0001B787BB9002200E000224FF400710C4814
:1039C000FCF76BFE0B4B9B7833B1084B1B7853B95C
:1039D000002202E00122F0E700224FF48071044847
:1039E000FCF75BFE08BD0122F7E700BFB82100200D
:1039F000001000485C22002008B505230822024977
:103A00000248FDF7E1FF08BD502200206C22002093
:103A100008B5124B1A785B78303B11490B60412A8C
:103A20000DD0442A0FD0532A0CD1012B0FD00C4BB0
:103A30001B683BB90B4B1868FEF716F902E00A4AFF
:103A40000121D15408BD084A0021D154FAE74FF4AE
:103A50007A71044B1868FEF7D1F8E8E700220020DD
:103A60000C0000204C2200205C22002008B50268D7
:103A7000034B9A4200D008BDFCF7BCFBFBE700BF3C
:103A8000002C0140FEE7000008B50C480C4B036019
:103A90004FF41643436000238360C36003610C222C
:103AA00042618361C36103624362FEF72CF800B98F
:103AB00008BD40F20F110348FFF7E4FF6C2200201D
:103AC00000440040703F000800B59FB001221492EE
:103AD0004FF48033159303211691189202221B9202
:103AE0001C934FF420131D9314A8FCF7DFFD48BB73
:103AF0000F230F9302231093002111914FF4806341
:103B0000129313910FA8FDF715F9F8B9022300934A
:103B1000002303936846FDF72DFAD8B9FDF7DAF9CB
:103B20000E4BA3FB00308009FCF7C8FB0420FCF718
:103B3000DBFB00220F214FF0FF30FCF77FFB1FB0B3
:103B40005DF804FBDB210648FFF79CFFE9210448F0
:103B5000FFF798FFF0210248FFF794FFD34D621062
:103B6000703F000800B58BB0FCF732FBFFF7ACFFED
:103B7000FFF714FEFFF7AAFEFFF786FF00260AA84C
:103B800040F8046D0121FEF7A1F81C4B18600AA84B
:103B90001B4B40F8083D32460121FEF71BF8194C3B
:103BA00020600AA8184B40F80C3D32460121FEF770
:103BB00011F8164D28600AA8154B40F8103D324602
:103BC0000121FEF707F8134B18604FF4FA712868CB
:103BD000FEF714F84FF47A712068FEF70FF801AC85
:103BE0000D4D0FCD0FC42B682360314601A8FDF7A2
:103BF000CEFF0A4B1860FDF7C5FFFEE764220020E8
:103C00001D390008582200208D3900084822002064
:103C1000F93900084C2200202C3F000868220020BF
:103C200000B583B0214B9A6942F001029A619A690A
:103C300002F001020092009ADA6942F08052DA61E1
:103C4000DB6903F080530193019B0320FCF7E4FA46
:103C5000002211466FF00B00FCF7F0FA002211462B
:103C60006FF00A00FCF7EAFA002211466FF0090033
:103C7000FCF7E4FA002211466FF00400FCF7DEFACC
:103C8000002211466FF00300FCF7D8FA00220F2142
:103C90006FF00100FCF7D2FA00220F214FF0FF3045
:103CA000FCF7CCFA03B05DF804FB00BF0010024043
:103CB00002681D4B9A4200D0704730B587B0044669
:103CC00003F5E633DA6942F40032DA61DB6903F4C2
:103CD00000330093009B0C230193022302930025E1
:103CE0000395032304930723059301A94FF0904004
:103CF000FCF702FC0D480E4B036045608560802395
:103D0000C3600561456120238361C561FCF738FB11
:103D100020B9064B63665C6207B030BD8021054860
:103D2000FFF7B0FEF5E700BF00440040042200208A
:103D30006C0002408C3F000800B589B000220146AB
:103D40001920FCF77BFA1920FCF7ACFA144B9A699E
:103D500042F400629A619B6903F400630193019B42
:103D600002A903A8FDF7E8F8FDF7D0F80D4BA3FB77
:103D700000239B0C013B0C480C4A026040F2E732E6
:103D8000C2604360002303618360FDF761FB18B1EB
:103D9000012009B05DF804FB0348FDF720FAF8E7BD
:103DA0000010024083DE1B43DC220020002C014077
:103DB00008B5FDF79EFF08BD08B50248FCF742FBB9
:103DC00008BD00BF0422002008B50248FDF717FA1D
:103DD00008BD00BFDC2200201549D1F8883043F42B
:103DE0007003C1F88830134B1A6842F001021A6060
:103DF0005868114A02405A601A6822F0847222F40C
:103E000080321A601A6822F480221A605A6822F4FA
:103E1000FE025A60DA6A22F00F02DA62186B074A71
:103E200002401A6300229A604FF000638B60704773
:103E300000ED00E0001002400CC07FF8CCFC00FF59
:103E4000DFF834D0002103E00C4B5B5843500431C1
:103E50000B480C4B42189A42F6D30B4A02E000235F
:103E600042F8043B094B9A42F9D3FFF7B5FF00F043
:103E700011F8FFF777FEFEE700A00020B03F000832
:103E80000000002014000020140000201C2300204B
:103E9000FEE7000070B50D4E0D4CA41BA4100025CC
:103EA000A54209D10B4E0C4C00F024F8A41BA41021
:103EB0000025A54205D170BD56F82530984701353B
:103EC000EEE756F8253098470135F2E7A83F00089D
:103ED000A83F0008A83F0008AC3F000810B5431EEB
:103EE0000A44914200D110BD11F8014B03F8014F73
:103EF000F7E70000F8B500BFF8BC08BC9E46704765
:0C3F0000F8B500BFF8BC08BC9E46704736
:103F0C0002030405060708090A0B0C0D0E0F10100E
:103F1C000102030405060708090A0B0C0D0E0F100D
:103F2C00803F00080139000800000000000000007C
:103F3C0080000000000000000000000001020304EB
:103F4C0006070809000000000102030449444C451F
:103F5C0000000000546D725100000000546D72207E
:103F6C00537663002E2E2F5372632F6D61696E2E64
:103F7C006300000055617274526563697665720066
:103F8C002E2E2F5372632F73746D33326633787801
:0C3F9C005F68616C5F6D73702E63000045
:043FA800B501000857
:043FAC009101000877
:103FB0000100000010000000AAAAAAAA0700000041
:043FC00000127A0071
:0400000508003E4170
:00000001FF
